{"abi":[{"type":"constructor","inputs":[{"name":"_asset","type":"address","internalType":"contract ERC20"},{"name":"_name","type":"string","internalType":"string"},{"name":"_symbol","type":"string","internalType":"string"}],"stateMutability":"nonpayable"},{"type":"function","name":"DOMAIN_SEPARATOR","inputs":[],"outputs":[{"name":"","type":"bytes32","internalType":"bytes32"}],"stateMutability":"view"},{"type":"function","name":"_deposit","inputs":[{"name":"_assets","type":"uint256","internalType":"uint256"}],"outputs":[],"stateMutability":"nonpayable"},{"type":"function","name":"_withdraw","inputs":[{"name":"_shares","type":"uint256","internalType":"uint256"},{"name":"_receiver","type":"address","internalType":"address"}],"outputs":[],"stateMutability":"nonpayable"},{"type":"function","name":"allowance","inputs":[{"name":"","type":"address","internalType":"address"},{"name":"","type":"address","internalType":"address"}],"outputs":[{"name":"","type":"uint256","internalType":"uint256"}],"stateMutability":"view"},{"type":"function","name":"approve","inputs":[{"name":"spender","type":"address","internalType":"address"},{"name":"amount","type":"uint256","internalType":"uint256"}],"outputs":[{"name":"","type":"bool","internalType":"bool"}],"stateMutability":"nonpayable"},{"type":"function","name":"asset","inputs":[],"outputs":[{"name":"","type":"address","internalType":"contract ERC20"}],"stateMutability":"view"},{"type":"function","name":"assetAddress","inputs":[],"outputs":[{"name":"","type":"address","internalType":"address"}],"stateMutability":"view"},{"type":"function","name":"assetsPerShare","inputs":[],"outputs":[{"name":"","type":"uint256","internalType":"uint256"}],"stateMutability":"view"},{"type":"function","name":"balanceOf","inputs":[{"name":"","type":"address","internalType":"address"}],"outputs":[{"name":"","type":"uint256","internalType":"uint256"}],"stateMutability":"view"},{"type":"function","name":"charityAddress","inputs":[],"outputs":[{"name":"","type":"address","internalType":"address"}],"stateMutability":"view"},{"type":"function","name":"convertToAssets","inputs":[{"name":"shares","type":"uint256","internalType":"uint256"}],"outputs":[{"name":"","type":"uint256","internalType":"uint256"}],"stateMutability":"view"},{"type":"function","name":"convertToShares","inputs":[{"name":"assets","type":"uint256","internalType":"uint256"}],"outputs":[{"name":"","type":"uint256","internalType":"uint256"}],"stateMutability":"view"},{"type":"function","name":"decimals","inputs":[],"outputs":[{"name":"","type":"uint8","internalType":"uint8"}],"stateMutability":"view"},{"type":"function","name":"deposit","inputs":[{"name":"assets","type":"uint256","internalType":"uint256"},{"name":"receiver","type":"address","internalType":"address"}],"outputs":[{"name":"shares","type":"uint256","internalType":"uint256"}],"stateMutability":"nonpayable"},{"type":"function","name":"harvestYield","inputs":[],"outputs":[],"stateMutability":"nonpayable"},{"type":"function","name":"lastAssetPerShareRatio","inputs":[],"outputs":[{"name":"","type":"uint256","internalType":"uint256"}],"stateMutability":"view"},{"type":"function","name":"maxDeposit","inputs":[{"name":"","type":"address","internalType":"address"}],"outputs":[{"name":"","type":"uint256","internalType":"uint256"}],"stateMutability":"view"},{"type":"function","name":"maxMint","inputs":[{"name":"","type":"address","internalType":"address"}],"outputs":[{"name":"","type":"uint256","internalType":"uint256"}],"stateMutability":"view"},{"type":"function","name":"maxRedeem","inputs":[{"name":"owner","type":"address","internalType":"address"}],"outputs":[{"name":"","type":"uint256","internalType":"uint256"}],"stateMutability":"view"},{"type":"function","name":"maxWithdraw","inputs":[{"name":"owner","type":"address","internalType":"address"}],"outputs":[{"name":"","type":"uint256","internalType":"uint256"}],"stateMutability":"view"},{"type":"function","name":"mint","inputs":[{"name":"shares","type":"uint256","internalType":"uint256"},{"name":"receiver","type":"address","internalType":"address"}],"outputs":[{"name":"assets","type":"uint256","internalType":"uint256"}],"stateMutability":"nonpayable"},{"type":"function","name":"name","inputs":[],"outputs":[{"name":"","type":"string","internalType":"string"}],"stateMutability":"view"},{"type":"function","name":"nonces","inputs":[{"name":"","type":"address","internalType":"address"}],"outputs":[{"name":"","type":"uint256","internalType":"uint256"}],"stateMutability":"view"},{"type":"function","name":"permit","inputs":[{"name":"owner","type":"address","internalType":"address"},{"name":"spender","type":"address","internalType":"address"},{"name":"value","type":"uint256","internalType":"uint256"},{"name":"deadline","type":"uint256","internalType":"uint256"},{"name":"v","type":"uint8","internalType":"uint8"},{"name":"r","type":"bytes32","internalType":"bytes32"},{"name":"s","type":"bytes32","internalType":"bytes32"}],"outputs":[],"stateMutability":"nonpayable"},{"type":"function","name":"previewDeposit","inputs":[{"name":"assets","type":"uint256","internalType":"uint256"}],"outputs":[{"name":"","type":"uint256","internalType":"uint256"}],"stateMutability":"view"},{"type":"function","name":"previewMint","inputs":[{"name":"shares","type":"uint256","internalType":"uint256"}],"outputs":[{"name":"","type":"uint256","internalType":"uint256"}],"stateMutability":"view"},{"type":"function","name":"previewRedeem","inputs":[{"name":"shares","type":"uint256","internalType":"uint256"}],"outputs":[{"name":"","type":"uint256","internalType":"uint256"}],"stateMutability":"view"},{"type":"function","name":"previewWithdraw","inputs":[{"name":"assets","type":"uint256","internalType":"uint256"}],"outputs":[{"name":"","type":"uint256","internalType":"uint256"}],"stateMutability":"view"},{"type":"function","name":"redeem","inputs":[{"name":"shares","type":"uint256","internalType":"uint256"},{"name":"receiver","type":"address","internalType":"address"},{"name":"owner","type":"address","internalType":"address"}],"outputs":[{"name":"assets","type":"uint256","internalType":"uint256"}],"stateMutability":"nonpayable"},{"type":"function","name":"setCharityAddress","inputs":[{"name":"_charityAddress","type":"address","internalType":"address"}],"outputs":[],"stateMutability":"nonpayable"},{"type":"function","name":"setUserCharityYieldRatio","inputs":[{"name":"_userCharityYieldRatio","type":"uint256","internalType":"uint256"}],"outputs":[],"stateMutability":"nonpayable"},{"type":"function","name":"shareHolder","inputs":[{"name":"","type":"address","internalType":"address"}],"outputs":[{"name":"","type":"uint256","internalType":"uint256"}],"stateMutability":"view"},{"type":"function","name":"speedrunYield","inputs":[],"outputs":[],"stateMutability":"nonpayable"},{"type":"function","name":"symbol","inputs":[],"outputs":[{"name":"","type":"string","internalType":"string"}],"stateMutability":"view"},{"type":"function","name":"totalAssets","inputs":[],"outputs":[{"name":"","type":"uint256","internalType":"uint256"}],"stateMutability":"view"},{"type":"function","name":"totalAssetsOfUser","inputs":[{"name":"_user","type":"address","internalType":"address"}],"outputs":[{"name":"","type":"uint256","internalType":"uint256"}],"stateMutability":"view"},{"type":"function","name":"totalSupply","inputs":[],"outputs":[{"name":"","type":"uint256","internalType":"uint256"}],"stateMutability":"view"},{"type":"function","name":"transfer","inputs":[{"name":"to","type":"address","internalType":"address"},{"name":"amount","type":"uint256","internalType":"uint256"}],"outputs":[{"name":"","type":"bool","internalType":"bool"}],"stateMutability":"nonpayable"},{"type":"function","name":"transferFrom","inputs":[{"name":"from","type":"address","internalType":"address"},{"name":"to","type":"address","internalType":"address"},{"name":"amount","type":"uint256","internalType":"uint256"}],"outputs":[{"name":"","type":"bool","internalType":"bool"}],"stateMutability":"nonpayable"},{"type":"function","name":"userCharityYieldRatio","inputs":[],"outputs":[{"name":"","type":"uint256","internalType":"uint256"}],"stateMutability":"view"},{"type":"function","name":"withdraw","inputs":[{"name":"assets","type":"uint256","internalType":"uint256"},{"name":"receiver","type":"address","internalType":"address"},{"name":"owner","type":"address","internalType":"address"}],"outputs":[{"name":"shares","type":"uint256","internalType":"uint256"}],"stateMutability":"nonpayable"},{"type":"event","name":"Approval","inputs":[{"name":"owner","type":"address","indexed":true,"internalType":"address"},{"name":"spender","type":"address","indexed":true,"internalType":"address"},{"name":"amount","type":"uint256","indexed":false,"internalType":"uint256"}],"anonymous":false},{"type":"event","name":"CharityAddressSet","inputs":[{"name":"charityAddress","type":"address","indexed":true,"internalType":"address"}],"anonymous":false},{"type":"event","name":"Deposit","inputs":[{"name":"caller","type":"address","indexed":true,"internalType":"address"},{"name":"owner","type":"address","indexed":true,"internalType":"address"},{"name":"assets","type":"uint256","indexed":false,"internalType":"uint256"},{"name":"shares","type":"uint256","indexed":false,"internalType":"uint256"}],"anonymous":false},{"type":"event","name":"Transfer","inputs":[{"name":"from","type":"address","indexed":true,"internalType":"address"},{"name":"to","type":"address","indexed":true,"internalType":"address"},{"name":"amount","type":"uint256","indexed":false,"internalType":"uint256"}],"anonymous":false},{"type":"event","name":"Withdraw","inputs":[{"name":"caller","type":"address","indexed":true,"internalType":"address"},{"name":"receiver","type":"address","indexed":true,"internalType":"address"},{"name":"owner","type":"address","indexed":true,"internalType":"address"},{"name":"assets","type":"uint256","indexed":false,"internalType":"uint256"},{"name":"shares","type":"uint256","indexed":false,"internalType":"uint256"}],"anonymous":false}],"bytecode":{"object":"0x6101006040523480156200001257600080fd5b506040516200227e3803806200227e83398101604081905262000035916200027b565b8282828181846001600160a01b031663313ce5676040518163ffffffff1660e01b8152600401602060405180830381865afa15801562000079573d6000803e3d6000fd5b505050506040513d601f19601f820116820180604052508101906200009f919062000305565b6000620000ad8482620003c0565b506001620000bc8382620003c0565b5060ff81166080524660a052620000d26200011a565b60c052505050506001600160a01b0391821660e05250600880546001600160a01b03191694909116939093179092555050670de0b6b3a7640000600955605a600a556200050a565b60007f8b73c3c69bb8fe3d512ecc4cf759cc79239f7b179b0ffacaa9a75d522b39400f60006040516200014e91906200048c565b6040805191829003822060208301939093528101919091527fc89efdaa54c0f20c7adf612882df0950f5a951637e0307cdcb4c672f298b8bc660608201524660808201523060a082015260c00160405160208183030381529060405280519060200120905090565b634e487b7160e01b600052604160045260246000fd5b600082601f830112620001de57600080fd5b81516001600160401b0380821115620001fb57620001fb620001b6565b604051601f8301601f19908116603f01168101908282118183101715620002265762000226620001b6565b816040528381526020925086838588010111156200024357600080fd5b600091505b8382101562000267578582018301518183018401529082019062000248565b600093810190920192909252949350505050565b6000806000606084860312156200029157600080fd5b83516001600160a01b0381168114620002a957600080fd5b60208501519093506001600160401b0380821115620002c757600080fd5b620002d587838801620001cc565b93506040860151915080821115620002ec57600080fd5b50620002fb86828701620001cc565b9150509250925092565b6000602082840312156200031857600080fd5b815160ff811681146200032a57600080fd5b9392505050565b600181811c908216806200034657607f821691505b6020821081036200036757634e487b7160e01b600052602260045260246000fd5b50919050565b601f821115620003bb57600081815260208120601f850160051c81016020861015620003965750805b601f850160051c820191505b81811015620003b757828155600101620003a2565b5050505b505050565b81516001600160401b03811115620003dc57620003dc620001b6565b620003f481620003ed845462000331565b846200036d565b602080601f8311600181146200042c5760008415620004135750858301515b600019600386901b1c1916600185901b178555620003b7565b600085815260208120601f198616915b828110156200045d578886015182559484019460019091019084016200043c565b50858210156200047c5787850151600019600388901b60f8161c191681555b5050505050600190811b01905550565b60008083546200049c8162000331565b60018281168015620004b75760018114620004cd57620004fe565b60ff1984168752821515830287019450620004fe565b8760005260208060002060005b85811015620004f55781548a820152908401908201620004da565b50505082870194505b50929695505050505050565b60805160a05160c05160e051611cfb620005836000396000818161038e015281816105d801528181610ae701528181610bb701528181610d3601528181610f5f015281816110a1015281816113be01528181611554015261163401526000610aa301526000610a73015260006103450152611cfb6000f3fe608060405234801561001057600080fd5b50600436106102535760003560e01c80637ecebe0011610146578063b460af94116100c3578063d505accf11610087578063d505accf1461051e578063d905777e14610531578063dd62ed3e1461055a578063e8d991d114610585578063ef8b30f71461058d578063f071f4fd146105a057600080fd5b8063b460af94146104d2578063ba087652146104e5578063c63d75b6146103b0578063c6e6f592146104f8578063ce96cb771461050b57600080fd5b806395d89b411161010a57806395d89b411461047e57806398b79ff314610486578063a9059cbb14610499578063afcf2fc4146104ac578063b3d7f6b9146104bf57600080fd5b80637ecebe001461042757806380773762146104475780639213b1241461044f57806394bf804d1461046257806395b822a31461047557600080fd5b8063313ce567116101d457806345be27b61161019857806345be27b6146103c55780634cdad506146103d857806367c0c416146103eb5780636e553f65146103f457806370a082311461040757600080fd5b8063313ce5671461034057806335d16e17146103795780633644e5151461038157806338d52e0f14610389578063402d267d146103b057600080fd5b80630c9be46d1161021b5780630c9be46d146102d157806318160ddd146102e65780631ba46cfd146102ef57806323b872dd1461031a578063293311ab1461032d57600080fd5b806301e1d1141461025857806306fdde031461027357806307a2d13a14610288578063095ea7b31461029b5780630a28a477146102be575b600080fd5b6102606105c0565b6040519081526020015b60405180910390f35b61027b610650565b60405161026a9190611935565b610260610296366004611983565b6106de565b6102ae6102a93660046119b8565b61070b565b604051901515815260200161026a565b6102606102cc366004611983565b610778565b6102e46102df3660046119e2565b610798565b005b61026060025481565b600854610302906001600160a01b031681565b6040516001600160a01b03909116815260200161026a565b6102ae6103283660046119fd565b610804565b6102e461033b366004611a39565b6108e4565b6103677f000000000000000000000000000000000000000000000000000000000000000081565b60405160ff909116815260200161026a565b610260610a5c565b610260610a6f565b6103027f000000000000000000000000000000000000000000000000000000000000000081565b6102606103be3660046119e2565b5060001990565b6102606103d33660046119e2565b610ac5565b6102606103e6366004611983565b610b54565b610260600a5481565b610260610402366004611a39565b610b5f565b6102606104153660046119e2565b60036020526000908152604090205481565b6102606104353660046119e2565b60056020526000908152604090205481565b6102e4610c35565b6102e461045d366004611983565b610ca1565b610260610470366004611a39565b610d1c565b61026060095481565b61027b610dab565b6102e4610494366004611983565b610db8565b6102ae6104a73660046119b8565b610dfd565b600754610302906001600160a01b031681565b6102606104cd366004611983565b610e63565b6102606104e0366004611a65565b610e82565b6102606104f3366004611a65565b610f86565b610260610506366004611983565b6110c8565b6102606105193660046119e2565b6110e8565b6102e461052c366004611aa1565b61110a565b61026061053f3660046119e2565b6001600160a01b031660009081526003602052604090205490565b610260610568366004611b14565b600460209081526000928352604080842090915290825290205481565b6102e461134e565b61026061059b366004611983565b61165f565b6102606105ae3660046119e2565b60066020526000908152604090205481565b6040516370a0823160e01b81523060048201526000907f00000000000000000000000000000000000000000000000000000000000000006001600160a01b0316906370a0823190602401602060405180830381865afa158015610627573d6000803e3d6000fd5b505050506040513d601f19601f8201168201806040525081019061064b9190611b3e565b905090565b6000805461065d90611b57565b80601f016020809104026020016040519081016040528092919081815260200182805461068990611b57565b80156106d65780601f106106ab576101008083540402835291602001916106d6565b820191906000526020600020905b8154815290600101906020018083116106b957829003601f168201915b505050505081565b6002546000908015610702576106fd6106f56105c0565b84908361166a565b610704565b825b9392505050565b3360008181526004602090815260408083206001600160a01b038716808552925280832085905551919290917f8c5be1e5ebec7d5bd14f71427d1e84f3dd0314c0f7b2291e5b200ac8c7c3b925906107669086815260200190565b60405180910390a35060015b92915050565b6002546000908015610702576106fd816107906105c0565b859190611688565b6001600160a01b0381166107e25760405162461bcd60e51b815260206004820152600c60248201526b5a65726f204164647265737360a01b60448201526064015b60405180910390fd5b600780546001600160a01b0319166001600160a01b0392909216919091179055565b6001600160a01b038316600090815260046020908152604080832033845290915281205460001981146108605761083b8382611ba7565b6001600160a01b03861660009081526004602090815260408083203384529091529020555b6001600160a01b03851660009081526003602052604081208054859290610888908490611ba7565b90915550506001600160a01b0380851660008181526003602052604090819020805487019055519091871690600080516020611ca6833981519152906108d19087815260200190565b60405180910390a3506001949350505050565b6000821161093f5760405162461bcd60e51b815260206004820152602260248201527f7769746864726177206d7573742062652067726561746572207468616e205a65604482015261726f60f01b60648201526084016107d9565b6001600160a01b0381166109845760405162461bcd60e51b815260206004820152600c60248201526b5a65726f204164647265737360a01b60448201526064016107d9565b336000908152600660205260409020546109d55760405162461bcd60e51b81526020600482015260126024820152712737ba10309039b430b932903437b63232b960711b60448201526064016107d9565b33600090815260066020526040902054821115610a285760405162461bcd60e51b81526020600482015260116024820152704e6f7420656e6f7567682073686172657360781b60448201526064016107d9565b610a33828233610f86565b503360009081526006602052604081208054849290610a53908490611ba7565b90915550505050565b600061064b670de0b6b3a76400006106de565b60007f00000000000000000000000000000000000000000000000000000000000000004614610aa05761064b6116ae565b507f000000000000000000000000000000000000000000000000000000000000000090565b6040516370a0823160e01b81526001600160a01b0382811660048301526000917f0000000000000000000000000000000000000000000000000000000000000000909116906370a0823190602401602060405180830381865afa158015610b30573d6000803e3d6000fd5b505050506040513d601f19601f820116820180604052508101906107729190611b3e565b6000610772826106de565b6000610b6a8361165f565b905080600003610baa5760405162461bcd60e51b815260206004820152600b60248201526a5a45524f5f53484152455360a81b60448201526064016107d9565b610bdf6001600160a01b037f000000000000000000000000000000000000000000000000000000000000000016333086611748565b610be982826117dd565b60408051848152602081018390526001600160a01b0384169133917fdcbc1c05240f31ff3ad067ef1ee35ce4997762752e3a095284754544f4c709d791015b60405180910390a3610772565b6008546040516340c10f1960e01b8152306004820152631dcd650060248201526001600160a01b039091169081906340c10f1990604401600060405180830381600087803b158015610c8657600080fd5b505af1158015610c9a573d6000803e3d6000fd5b5050505050565b60008111610cea5760405162461bcd60e51b81526020600482015260166024820152754465706f736974206c657373207468616e205a65726f60501b60448201526064016107d9565b610cf48133610b5f565b503360009081526006602052604081208054839290610d14908490611bba565b909155505050565b6000610d2783610e63565b9050610d5e6001600160a01b037f000000000000000000000000000000000000000000000000000000000000000016333084611748565b610d6882846117dd565b60408051828152602081018590526001600160a01b0384169133917fdcbc1c05240f31ff3ad067ef1ee35ce4997762752e3a095284754544f4c709d79101610c28565b6001805461065d90611b57565b6064811115610df85760405162461bcd60e51b815260206004820152600c60248201526b4f7574206f662052616e676560a01b60448201526064016107d9565b600a55565b33600090815260036020526040812080548391908390610e1e908490611ba7565b90915550506001600160a01b03831660008181526003602052604090819020805485019055513390600080516020611ca6833981519152906107669086815260200190565b6002546000908015610702576106fd610e7a6105c0565b849083611688565b6000610e8d84610778565b9050336001600160a01b03831614610efd576001600160a01b03821660009081526004602090815260408083203384529091529020546000198114610efb57610ed68282611ba7565b6001600160a01b03841660009081526004602090815260408083203384529091529020555b505b610f078282611837565b60408051858152602081018390526001600160a01b03808516929086169133917ffbde797d201c681b91056529119e0b02407c7bb96a4a2c75c01fc9667232c8db910160405180910390a46107046001600160a01b037f0000000000000000000000000000000000000000000000000000000000000000168486611899565b6000336001600160a01b03831614610ff6576001600160a01b03821660009081526004602090815260408083203384529091529020546000198114610ff457610fcf8582611ba7565b6001600160a01b03841660009081526004602090815260408083203384529091529020555b505b610fff84610b54565b90508060000361103f5760405162461bcd60e51b815260206004820152600b60248201526a5a45524f5f41535345545360a81b60448201526064016107d9565b6110498285611837565b60408051828152602081018690526001600160a01b03808516929086169133917ffbde797d201c681b91056529119e0b02407c7bb96a4a2c75c01fc9667232c8db910160405180910390a46107046001600160a01b037f0000000000000000000000000000000000000000000000000000000000000000168483611899565b6002546000908015610702576106fd816110e06105c0565b85919061166a565b6001600160a01b038116600090815260036020526040812054610772906106de565b4284101561115a5760405162461bcd60e51b815260206004820152601760248201527f5045524d49545f444541444c494e455f4558504952454400000000000000000060448201526064016107d9565b60006001611166610a6f565b6001600160a01b038a811660008181526005602090815260409182902080546001810190915582517f6e71edae12b1b97f4d1f60370fef10105fa2faae0126114a169c64845d6126c98184015280840194909452938d166060840152608083018c905260a083019390935260c08083018b90528151808403909101815260e08301909152805192019190912061190160f01b6101008301526101028201929092526101228101919091526101420160408051601f198184030181528282528051602091820120600084529083018083525260ff871690820152606081018590526080810184905260a0016020604051602081039080840390855afa158015611272573d6000803e3d6000fd5b5050604051601f1901519150506001600160a01b038116158015906112a85750876001600160a01b0316816001600160a01b0316145b6112e55760405162461bcd60e51b815260206004820152600e60248201526d24a72b20a624a22fa9a4a3a722a960911b60448201526064016107d9565b6001600160a01b0390811660009081526004602090815260408083208a8516808552908352928190208990555188815291928a16917f8c5be1e5ebec7d5bd14f71427d1e84f3dd0314c0f7b2291e5b200ac8c7c3b925910160405180910390a350505050505050565b6007546001600160a01b03166113a65760405162461bcd60e51b815260206004820152601760248201527f436861726974792041646472657373206e6f742073657400000000000000000060448201526064016107d9565b6040516370a0823160e01b81523060048201526000907f00000000000000000000000000000000000000000000000000000000000000006001600160a01b0316906370a0823190602401602060405180830381865afa15801561140d573d6000803e3d6000fd5b505050506040513d601f19601f820116820180604052508101906114319190611b3e565b116114755760405162461bcd60e51b8152602060048201526014602482015273139bc8185cdcd95d1cc81d1bc81a185c9d995cdd60621b60448201526064016107d9565b6000306001600160a01b03166318160ddd6040518163ffffffff1660e01b8152600401602060405180830381865afa1580156114b5573d6000803e3d6000fd5b505050506040513d601f19601f820116820180604052508101906114d99190611b3e565b1161151d5760405162461bcd60e51b8152602060048201526014602482015273139bc81cda185c995cc81d1bc81a185c9d995cdd60621b60448201526064016107d9565b6000611527610a5c565b6040516370a0823160e01b8152306004820152909150600090670de0b6b3a7640000906001600160a01b037f000000000000000000000000000000000000000000000000000000000000000016906370a0823190602401602060405180830381865afa15801561159b573d6000803e3d6000fd5b505050506040513d601f19601f820116820180604052508101906115bf9190611b3e565b6115d784600954866115d19190611ba7565b90611920565b6115e19190611bcd565b6115eb9190611be4565b6009839055600754600a5491925061165b916001600160a01b03909116906064906116169082611ba7565b6116209085611bcd565b61162a9190611be4565b6001600160a01b037f0000000000000000000000000000000000000000000000000000000000000000169190611899565b5050565b6000610772826110c8565b600082600019048411830215820261168157600080fd5b5091020490565b600082600019048411830215820261169f57600080fd5b50910281810615159190040190565b60007f8b73c3c69bb8fe3d512ecc4cf759cc79239f7b179b0ffacaa9a75d522b39400f60006040516116e09190611c06565b6040805191829003822060208301939093528101919091527fc89efdaa54c0f20c7adf612882df0950f5a951637e0307cdcb4c672f298b8bc660608201524660808201523060a082015260c00160405160208183030381529060405280519060200120905090565b60006040516323b872dd60e01b81526001600160a01b03851660048201526001600160a01b03841660248201528260448201526020600060648360008a5af13d15601f3d1160016000511416171691505080610c9a5760405162461bcd60e51b81526020600482015260146024820152731514905394d1915497d19493d357d1905253115160621b60448201526064016107d9565b80600260008282546117ef9190611bba565b90915550506001600160a01b038216600081815260036020908152604080832080548601905551848152600080516020611ca683398151915291015b60405180910390a35050565b6001600160a01b0382166000908152600360205260408120805483929061185f908490611ba7565b90915550506002805482900390556040518181526000906001600160a01b03841690600080516020611ca68339815191529060200161182b565b600060405163a9059cbb60e01b81526001600160a01b0384166004820152826024820152602060006044836000895af13d15601f3d116001600051141617169150508061191a5760405162461bcd60e51b815260206004820152600f60248201526e1514905394d1915497d19052531151608a1b60448201526064016107d9565b50505050565b600061070483670de0b6b3a76400008461166a565b600060208083528351808285015260005b8181101561196257858101830151858201604001528201611946565b506000604082860101526040601f19601f8301168501019250505092915050565b60006020828403121561199557600080fd5b5035919050565b80356001600160a01b03811681146119b357600080fd5b919050565b600080604083850312156119cb57600080fd5b6119d48361199c565b946020939093013593505050565b6000602082840312156119f457600080fd5b6107048261199c565b600080600060608486031215611a1257600080fd5b611a1b8461199c565b9250611a296020850161199c565b9150604084013590509250925092565b60008060408385031215611a4c57600080fd5b82359150611a5c6020840161199c565b90509250929050565b600080600060608486031215611a7a57600080fd5b83359250611a8a6020850161199c565b9150611a986040850161199c565b90509250925092565b600080600080600080600060e0888a031215611abc57600080fd5b611ac58861199c565b9650611ad36020890161199c565b95506040880135945060608801359350608088013560ff81168114611af757600080fd5b9699959850939692959460a0840135945060c09093013592915050565b60008060408385031215611b2757600080fd5b611b308361199c565b9150611a5c6020840161199c565b600060208284031215611b5057600080fd5b5051919050565b600181811c90821680611b6b57607f821691505b602082108103611b8b57634e487b7160e01b600052602260045260246000fd5b50919050565b634e487b7160e01b600052601160045260246000fd5b8181038181111561077257610772611b91565b8082018082111561077257610772611b91565b808202811582820484141761077257610772611b91565b600082611c0157634e487b7160e01b600052601260045260246000fd5b500490565b600080835481600182811c915080831680611c2257607f831692505b60208084108203611c4157634e487b7160e01b86526022600452602486fd5b818015611c555760018114611c6a57611c97565b60ff1986168952841515850289019650611c97565b60008a81526020902060005b86811015611c8f5781548b820152908501908301611c76565b505084890196505b50949897505050505050505056feddf252ad1be2c89b69c2b068fc378daa952ba7f163c4a11628f55a4df523b3efa26469706673582212204065f1f1c94ad6c699313a911dec4208898bf8da00f029e64dee1c0aa04a38e164736f6c63430008140033","linkReferences":{}},"methodIdentifiers":{"DOMAIN_SEPARATOR()":"3644e515","_deposit(uint256)":"9213b124","_withdraw(uint256,address)":"293311ab","allowance(address,address)":"dd62ed3e","approve(address,uint256)":"095ea7b3","asset()":"38d52e0f","assetAddress()":"1ba46cfd","assetsPerShare()":"35d16e17","balanceOf(address)":"70a08231","charityAddress()":"afcf2fc4","convertToAssets(uint256)":"07a2d13a","convertToShares(uint256)":"c6e6f592","decimals()":"313ce567","deposit(uint256,address)":"6e553f65","harvestYield()":"e8d991d1","lastAssetPerShareRatio()":"95b822a3","maxDeposit(address)":"402d267d","maxMint(address)":"c63d75b6","maxRedeem(address)":"d905777e","maxWithdraw(address)":"ce96cb77","mint(uint256,address)":"94bf804d","name()":"06fdde03","nonces(address)":"7ecebe00","permit(address,address,uint256,uint256,uint8,bytes32,bytes32)":"d505accf","previewDeposit(uint256)":"ef8b30f7","previewMint(uint256)":"b3d7f6b9","previewRedeem(uint256)":"4cdad506","previewWithdraw(uint256)":"0a28a477","redeem(uint256,address,address)":"ba087652","setCharityAddress(address)":"0c9be46d","setUserCharityYieldRatio(uint256)":"98b79ff3","shareHolder(address)":"f071f4fd","speedrunYield()":"80773762","symbol()":"95d89b41","totalAssets()":"01e1d114","totalAssetsOfUser(address)":"45be27b6","totalSupply()":"18160ddd","transfer(address,uint256)":"a9059cbb","transferFrom(address,address,uint256)":"23b872dd","userCharityYieldRatio()":"67c0c416","withdraw(uint256,address,address)":"b460af94"},"id":26}